:100000000C9424010C9441010C9441010C94410185
:100010000C9441010C9441010C9441010C94410158
:100020000C9441010C9441010C9441010C94430146
:100030000C9441010C9441010C9441010C94410138
:100040000C9441010C9441010C9441010C94410128
:100050000C9441010C9441010C9441010C94410118
:100060000C9441010C944101000000000000005F6D
:1000700000000007000700147F147F14242A7F2A41
:10008000122313086462364955225000050300000C
:10009000001C2241000041221C0014083E081408E4
:1000A000083E0808005030000008080808080060F2
:1000B00060000020100804023E5149453E00427F86
:1000C000400042615149462141454B311814127F8D
:1000D0001027454545393C4A494930017109050316
:1000E0003649494936064949291E0036360000007E
:1000F0005636000008142241001414141414004150
:100100002214080201510906324979413E7E11113B
:10011000117E7F494949363E414141227F4141227A
:100120001C7F494949417F090909013E4149497AF2
:100130007F0808087F00417F41002040413F017F48
:10014000081422417F404040407F020C027F7F0420
:1001500008107F3E4141413E7F090909063E415159
:10016000215E7F09192946464949493101017F012C
:10017000013F4040403F1F2040201F3F4038403F4C
:100180006314081463070870080761514945430068
:100190007F41410002040810200041417F00040219
:1001A0000102044040404040000102040020545439
:1001B00054787F48444438384444442038444448C0
:1001C0007F3854545418087E0901020C5252523E92
:1001D0007F0804047800447D40002040443D007FB7
:1001E0001028440000417F40007C041804787C08FB
:1001F00004047838444444387C1414140808141453
:10020000187C7C080404084854545420043F44409B
:10021000203C4040207C1C2040201C3C4030403C86
:1002200044281028440C5050503C4464544C440022
:100230000836410000007F00000041360800100829
:10024000081008000000000011241FBECFEFD8E006
:10025000DEBFCDBF11E0A0E0B1E0E4E6FAE102C00C
:1002600005900D92A235B107D9F723E0A2E5B1E0E0
:1002700001C01D92A239B207E1F70E94E0050C947B
:10028000300D0C9400001F920F920FB60F921124A4
:100290000F931F932F933F934F935F936F937F938E
:1002A0008F939F93AF93BF93EF93FF93CF93DF937E
:1002B000CDB7DEB76997DEBFCDBF80915601909173
:1002C0005701019690935701809356012091540154
:1002D000309155012F5F3F4F3093550120935401CA
:1002E0008D33910508F43FC00E94520360E084E121
:1002F0000E943C0462E08AE091E00E942C0464E1E8
:1003000084E10E943C0462E08FE091E00E942C04B2
:1003100068E280E00E943C0461E084E191E00E9498
:100320002C04809153018F93809152018F9388E226
:1003300091E09F938F938E010F5F1F4F1F930F9339
:100340000E94FC0968E28DE20E943C0461E0C80161
:100350000E942C040E9441040F900F900F900F9068
:100360000F900F90FFCF6EE170E00E94C806892BBE
:10037000C9F580910001282F30E050E040E02A8B41
:100380003B8B4C8B5D8BCA01B9010E9405086A8BBF
:100390007B8B8C8B9D8B20E030E040E05FE30E9404
:1003A000BA086E8B7F8B888F998F9B01AC016A890D
:1003B0007B898C899D890E94F0066A8B7B8B8C8B54
:1003C0009D8B0E9427096A8B7B8B8C8B9D8B0E9457
:1003D000D4076A8B7B8B8C8B9D8BCB016623E9F0DA
:1003E0008093000169960FB6F894DEBF0FBECDBFB3
:1003F000DF91CF91FF91EF91BF91AF919F918F913D
:100400007F916F915F914F913F912F911F910F912C
:100410000F900FBE0F901F90189581E0E1CF0F93C2
:100420001F93CF93C82F062F10E00E94DC09B8015C
:100430000E94DC06C817C9F31092550110925401AE
:10044000CF911F910F9108950F931F93CF93DF9337
:10045000CDB7DEB72A970FB6F894DEBF0FBECDBF7B
:100460000E94520369E280E00E943C0461E08DE159
:1004700091E00E942C04809153018F93809152014E
:100480008F9320915601309157018DE390E0821BAC
:10049000930B9F938F9385E291E09F938F938E01AF
:1004A0000F5F1F4F1F930F930E94FC0969E287E2C1
:1004B0000E943C0461E0C8010E942C040FB6F8942D
:1004C000DEBF0FBECDBF2A960FB6F894DEBF0FBEBB
:1004D000CDBFDF91CF911F910F910895FF920F93A0
:1004E0001F93CF93DF9300D0CDB7DEB7F82E8DB733
:1004F0009EB79A838983462F50E0EDB7FEB7E41B81
:10050000F50B0FB6F894FEBF0FBEEDBF0DB71EB7CB
:100510000F5F1F4F6FE470E0C8010E94F509F801FA
:10052000EF0DF11D86E2808360E085E20E943C04CD
:1005300061E0F80180810E948B036DE080E00E9401
:100540003C0461E0F80181810E948B036DE085E24B
:100550000E943C0461E0F80182810E948B036DE0FF
:1005600088E40E943C0461E0F80183810E948B03CF
:100570006CE185E20E943C0461E0F80184810E9404
:100580008B0326E244E566E280E00E9456040E9466
:10059000410489819A810FB6F8949EBF0FBE8DBF2A
:1005A0000F900F90DF91CF911F910F91FF900895C1
:1005B0001092850010928400E1E8F0E0808188606C
:1005C000808380818560808389E09DE390938900AA
:1005D00080938800EFE6F0E0808182608083089558
:1005E00029986623A9F02B9A27E030E090E0AC012F
:1005F000022E02C0559547950A94E2F740FF0AC0C3
:100600002C9A2D9A2D982150310988F7299A08950E
:100610002B98EACF2C98F5CF60E00C94F002CF93A2
:10062000DF93219A229A239A249A259A2A9A299A20
:100630008FE39CE90197F1F700C000002A989FEF33
:100640002AE683E0915020408040E1F700C000009E
:100650002A9A299881E20E940C0383E10E940C03EC
:1006600086E00E940C0382EC0E940C0380E20E9450
:100670000C0389E00E940C0380E80E940C0380E4D4
:100680000E940C03C8EFD1E061E080E00E94F0021C
:100690002197D1F788E00E940C038CE0DF91CF9185
:1006A0000C940C0380E80E940C0380E40E940C036D
:1006B0001092900310929103E8E9F1E088EF91E045
:1006C000DF019C011D9221503040E1F70895811116
:1006D00003C084E20C940C0380E2FCCF962F969525
:1006E00096959695E82FF0E084E5989FE00DF11D32
:1006F0001124E856FE4F2081677081E090E001C030
:10070000880F6A95EAF7442319F0282B208308956F
:1007100080952823FBCF8F929F92AF92BF92DF925A
:10072000EF92FF920F931F93CF93DF9300D000D0EF
:100730000F92CDB7DEB7E82FF62E80320CF44DC005
:10074000E05285E0E802B001112468597F4F45E08E
:1007500050E0CE0101960E94EC098E010F5F1F4F01
:1007600095E0F99E5001112487E0F89E4001112484
:10077000E12CEA141B040CF463C0809190038F5F9A
:100780009F2D990F990F9F0D890F809390038435AA
:1007900058F080919103109290038F5F97E0F99E3B
:1007A000800D11248093910380919103803320F078
:1007B00010929003109291030F900F900F900F9052
:1007C0000F90DF91CF911F910F91FF90EF90DF90ED
:1007D000BF90AF909F908F900895EE0FFF0BE85A57
:1007E000FE4F008111810115110509F0B9CF45E0D7
:1007F00050E068E670E0ADCFED0D5E0D8E2D6F2DF3
:100800000E94BC06D801A80FB11D2C9130E08D2D9F
:100810000E94BC0602C0359527958A95E2F741E013
:1008200020FF40E06E2F852F0E946E03D394E0914D
:10083000910350919003D8141904F4F2E39499CFE2
:10084000D12CF5CFE82F803234F4EE0FFF0BE85AAD
:10085000FE4F7183608308951F93CF93DF93162F0C
:10086000EC018991811104C0DF91CF911F9108950E
:10087000612F0E948B03F5CF8093900360939103C7
:100880000895CF93DF9380E80E940C0380E40E94D8
:100890000C03C8E9D1E061E089910E94F00283E095
:1008A000C039D807C1F7DF91CF9108954F925F9279
:1008B0006F927F928F929F92AF92BF92CF92DF9270
:1008C000EF92FF92CF93DF93CDB7DEB762970FB66B
:1008D000F894DEBF0FBECDBF8D876987F22E481B0F
:1008E000550BCA01550FAA0BBB0B89839A83AB83A7
:1008F000BC83BC01CD010E94050869837A838B8388
:100900009C83AF2D4985A41BBB0BCD01BB0FAA0B4C
:10091000BB0B8D839E83AF83B887BC01CD010E9442
:1009200005086D837E838F839887C980DA80EB808A
:10093000FC80E894F7F84B015C01E894B7F8A50156
:100940009401C701B6010E94B50887FF02C0750176
:100950006401A701960169817A818B819C810E9443
:10096000620769837A838B839C834B015C01A701B7
:1009700096016D817E818F8198850E9462072B018F
:100980003C019D85892F90E0B0E0A0E089839A83A7
:10099000AB83BC83BC01CD010E94030869837A83C9
:1009A0008B839C839985892F90E0B0E0A0E08D83B4
:1009B0009E83AF83B887BC01CD010E9403086D837D
:1009C0007E838F839887A1E0B0E0BA8BA98B898959
:1009D0009A89092E000CAA0BBB0B89879A87AB87D3
:1009E000BC87BC01CD010E94050869877A878B8787
:1009F0009C87A70196010E945D071816ACF46296C9
:100A00000FB6F894DEBF0FBECDBFDF91CF91FF9040
:100A1000EF90DF90CF90BF90AF909F908F907F909E
:100A20006F905F904F9008956D817E818F81988542
:100A30000E94D40769877A878B879C8769817A812E
:100A40008B819C810E94D4076D877E878F87988BCE
:100A500041E069858D850E946E03A501940169813D
:100A60007A818B819C810E94F10669837A838B83D2
:100A70009C83A30192016D817E818F8198850E9464
:100A8000F1066D837E838F83988789899A89019681
:100A90009A8B898B9CCF0F931F93CF93DF93C82F93
:100AA000162F042FD22F262F0E9456042D2F402FB1
:100AB000612F802F0E9456042D2F4C2F6D2F802FD9
:100AC0000E945604212F4C2F6D2F8C2FDF91CF9138
:100AD0001F910F910C9456047F928F929F92AF9228
:100AE000BF92CF92DF92EF92FF920F931F93CF931B
:100AF000DF93D82EC62EC42FD0E0F12CE12C10E0CD
:100B000000E041E0AC2CA00E6A2DBC2EBD0C8B2D5C
:100B10000E946E0341E08C2E8C0C682D9D2C900E53
:100B2000892D0E946E0341E0682D7D2C701A872D5F
:100B30000E946E0341E06A2D8D2C8C1A882D0E9434
:100B40006E0341E0AC2CA01A6A2D882D0E946E0322
:100B500041E08C2C8C1A682D872D0E946E0341E099
:100B6000682D892D0E946E0341E06A2D8B2D0E9415
:100B70006E031E141F045CF00F5F1F4FC801880F27
:100B8000991F0196E80EF91E1E141F043CF42197CC
:100B9000CE01880F991F0196E81AF90AC017D107EC
:100BA0000CF0AFCFDF91CF911F910F91FF90EF909D
:100BB000DF90CF90BF90AF909F908F907F900895DF
:100BC000CDB7DEB765970FB6F894DEBF0FBECDBFC9
:100BD000F89487B1886387B98AB1807E8AB98BB16E
:100BE0008F618BB90E940F030E9452030E94D802AA
:100BF0002FE243E560E080E00E944B056AE087E079
:100C00000E943C0461E08BE291E00E942C0464E1CC
:100C100086E00E943C0461E088E391E00E942C049D
:100C200063E285E00E943C041F928CE38F9385E48D
:100C300091E09F938F938E010F5F1F4F1F930F9330
:100C40000E94FC0961E0C8010E942C040E9441043A
:100C50000F900F900F900F900F900F9090E080E00A
:100C600048996FC0489BFECF0E94E10978940E948A
:100C7000DC0965E070E00E94DC06182FCC24C394E8
:100C8000D12C01E05E0184E1A80EB11C8DB79EB7A6
:100C90009D8B8C8B0E942402209100018091540135
:100CA000909155012817190609F028F465E0812F65
:100CB0000E940F02182F65E0812F0E946E021F868E
:100CC000188A198A1A8A1B8AF12CE12C89B190E0C2
:100CD0000E2C02C0959587950A94E2F780FD3AC0E4
:100CE00046010E2C02C0880C991C0A94E2F789B1C7
:100CF00090E088219921892B31F1EFE0F0E0EC0FB1
:100D0000FD1FEE0DFF1D0083EFE0F0E0EC0FFD1F77
:100D1000E10FF11D8081882331F180915201909182
:100D200053010196909353018093520165E0812F06
:100D30000E940F02182F0FB6F894DEBF0FBECDBF72
:100D4000A5CF01968DCF0E94240265E0812F0E94DD
:100D50006E02CDCF9FEFE91AF90A85E0E816F1049B
:100D600009F0B4CFD1CFFE013F9681918111DECF42
:100D7000EA15FB05D1F7DFCF991B79E004C0991F75
:100D8000961708F0961B881F7A95C9F780950895E5
:100D9000AA1BBB1B51E107C0AA1FBB1FA617B707A1
:100DA00010F0A61BB70B881F991F5A95A9F78095BD
:100DB0009095BC01CD01089597FB072E16F4009481
:100DC00007D077FD09D00E94C80607FC05D03EF485
:100DD000909581959F4F0895709561957F4F0895E7
:100DE0005058BB27AA270E9408070C947B080E9432
:100DF0006D0838F00E94740820F039F49F3F19F410
:100E000026F40C946A080EF4E095E7FB0C94640851
:100E1000E92F0E948C0858F3BA17620773078407FA
:100E2000950720F079F4A6F50C94AE080EF4E09541
:100E30000B2EBA2FA02D0B01B90190010C01CA0194
:100E4000A0011124FF27591B99F0593F50F4503E3F
:100E500068F11A16F040A22F232F342F4427585F31
:100E6000F3CF469537952795A795F0405395C9F749
:100E70007EF41F16BA0B620B730B840BBAF0915001
:100E8000A1F0FF0FBB1F661F771F881FC2F70EC0A0
:100E9000BA0F621F731F841F48F487957795679573
:100EA000B795F7959E3F08F0B0CF9395880F08F05F
:100EB0009927EE0F9795879508950E94400808F4AA
:100EC00081E008950E9476070C947B080E947408C4
:100ED00058F00E946D0840F029F45F3F29F00C940F
:100EE000640851110C94AF080C946A080E948C0895
:100EF00068F39923B1F3552391F3951B550BBB2749
:100F0000AA2762177307840738F09F5F5F4F220F8D
:100F1000331F441FAA1FA9F335D00E2E3AF0E0E884
:100F200032D091505040E695001CCAF72BD0FE2FCE
:100F300029D0660F771F881FBB1F26173707480762
:100F4000AB07B0E809F0BB0B802DBF01FF2793581A
:100F50005F4F3AF09E3F510578F00C9464080C9472
:100F6000AF085F3FE4F3983ED4F386957795679595
:100F7000B795F7959F5FC9F7880F911D969587954F
:100F800097F90895E1E0660F771F881FBB1F62176E
:100F900073078407BA0720F0621B730B840BBA0B2C
:100FA000EE1F88F7E09508950E94940888F09F57F7
:100FB00098F0B92F9927B751B0F0E1F0660F771F7D
:100FC000881F991F1AF0BA95C9F714C0B13091F073
:100FD0000E94AE08B1E008950C94AE08672F782FF8
:100FE0008827B85F39F0B93FCCF386957795679538
:100FF000B395D9F73EF490958095709561957F4FA4
:101000008F4F9F4F0895E89409C097FB3EF4909549
:101010008095709561957F4F8F4F9F4F9923A9F0D1
:10102000F92F96E9BB279395F69587957795679560
:10103000B795F111F8CFFAF4BB0F11F460FF1BC0A4
:101040006F5F7F4F8F4F9F4F16C0882311F096E937
:1010500011C0772321F09EE8872F762F05C06623E5
:1010600071F096E8862F70E060E02AF09A95660F9E
:10107000771F881FDAF7880F9695879597F9089557
:10108000990F0008550FAA0BE0E8FEEF1616170699
:10109000E807F907C0F012161306E407F50798F001
:1010A000621B730B840B950B39F40A2661F0232B1A
:1010B000242B252B21F408950A2609F4A140A69596
:1010C0008FEF811D811D089597F99F6780E870E07B
:1010D00060E008959FEF80EC089500240A941616AE
:1010E000170618060906089500240A941216130616
:1010F000140605060895092E0394000C11F48823A4
:1011000052F0BB0F40F4BF2B11F460FF04C06F5FBF
:101110007F4F8F4F9F4F089557FD9058440F551F95
:1011200059F05F3F71F04795880F97FB991F61F069
:101130009F3F79F087950895121613061406551FE0
:10114000F2CF4695F1DF08C0161617061806991F4C
:10115000F1CF86957105610508940895E894BB2741
:1011600066277727CB0197F908950E94400808F475
:101170008FEF08950E94CD080C947B080E946D08A3
:1011800038F00E94740820F0952311F00C94640844
:101190000C946A0811240C94AF080E948C0870F318
:1011A000959FC1F3950F50E0551F629FF001729F0C
:1011B000BB27F00DB11D639FAA27F00DB11DAA1F1B
:1011C000649F6627B00DA11D661F829F2227B00D68
:1011D000A11D621F739FB00DA11D621F839FA00DF3
:1011E000611D221F749F3327A00D611D231F849F43
:1011F000600D211D822F762F6A2F11249F5750409A
:101200009AF0F1F088234AF0EE0FFF1FBB1F661F14
:10121000771F881F91505040A9F79E3F510580F0DD
:101220000C9464080C94AF085F3FE4F3983ED4F349
:10123000869577956795B795F795E7959F5FC1F781
:10124000FE2B880F911D9695879597F908950E941A
:101250009408E8F09E37E8F09639B8F49E3848F4E0
:10126000672F782F8827985FF9CF869577956795B0
:1012700093959539D0F3B62FB1706B0F711D811D09
:1012800020F487957795679593950C944B090C946A
:1012900066090C94AF08882371F4772321F09850E5
:1012A000872B762F07C0662311F499270DC0905124
:1012B000862B70E060E02AF09A95660F771F881FF2
:1012C000DAF7880F9695879597F908959F3F31F043
:1012D000915020F4879577956795B795880F911D64
:1012E0009695879597F90895CF92DF92EF92FF92A6
:1012F000CF93DF93CDB7DEB72A970FB6F894DEBF52
:101300000FBECDBF89879A87A985BA852D913D915A
:101310004D915C9129833A834B835C83232B242B4F
:10132000252B41F424E239ED4BE557E029833A833C
:101330004B835C8369817A818B819C812DE133EFC2
:1013400041E050E00E94960C69017A01A7EAB1E4FD
:101350009B01AC010E94B50C69837A838B839C83CB
:10136000ACEEB4EFA70196010E94C30C9B01AC0147
:1013700089819A81AB81BC81820F931FA41FB51F05
:10138000B7FF03C00197A109B048E985FA858083BA
:101390009183A283B3839F772A960FB6F894DEBF1A
:1013A0000FBECDBFDF91CF91FF90EF90DF90CF9038
:1013B00008950E947409089581E091E00E947409E3
:1013C0000895B0E0A0E08093010190930201A09302
:1013D0000301B09304010895FB01DC0102C00590F4
:1013E0000D9241505040D8F70895DC0101C06D9333
:1013F00041505040E0F70895AEE0B0E0E2E0FAE09E
:101400000C94D60C0D891E8986E08C831A8309837F
:101410008FEF9FE79E838D83AE01475E5F4F6F899D
:10142000788DCE0101960E941F0A2F813885020F08
:10143000131FF80110822E96E4E00C94F20CAFE03A
:10144000B0E0E5E2FAE00C94C80C7C013B018A01B3
:10145000DC0117961C921E92169713968C9181FFB1
:10146000BEC19AE0292EFE0131964F01D701139695
:101470009C91F30193FD859193FF81913F01882316
:1014800009F444C1853239F493FD859193FF81912C
:101490003F01853229F4B70190E00E94080CE6CFA5
:1014A000B12C412C512CBFE1B51538F08B3209F12C
:1014B00088F4803201F1833221F157FC3AC020EDEB
:1014C000280F2A3040F556FE1FC0B29C200D112473
:1014D000B22E06C08D3291F0803379F7689450F8BF
:1014E000F30193FD859193FF81913F018111DBCF42
:1014F00020C0689451F8689452F8F2CF689453F879
:10150000EFCF689454F8ECCF429C200D1124422E6A
:10151000689455F8E5CF8E3229F456FCF7C06894EC
:1015200056F8DECF8C3619F4689457F8D9CF883640
:10153000B9F2982F9F7D95549330C0F0833681F196
:101540008337A1F1833509F05BC0D801CD90DD90E0
:101550008D016B2D70E056FC02C06FEF7FEFC6016E
:101560000E94F20B5C01689457F80AC00C5F1F4F91
:10157000EFE3E983AA24A394B12C6401E89457F81B
:1015800053FE29C0342CA114B10451F5332009F4C1
:101590006DCFB70180E290E00E94080C3A94F6CF3C
:1015A000D8018C9189830E5F1F4FE4CFF801C19061
:1015B000D1908F016B2D70E056FC02C06FEF7FEF72
:1015C000C6010E94FD0B5C01D9CFB70180E290E01B
:1015D0000E94080C4A944A141B0409F0B0F7D2CFB9
:1015E000F60157FC859157FE81916F01B70190E09C
:1015F0000E94080C31103A94B1E0AB1AB108C3CF85
:10160000843619F0893609F071C0F80157FE67C0B9
:1016100061917191819191918F01E52DEF76DE2E8F
:1016200097FF09C090958095709561957F4F8F4F7A
:101630009F4F6894D7F82AE030E0A4010E94380C4C
:10164000C82EC818AC2C5D2CD6FE0CC0E89450F8FF
:10165000CB1440F4D4FE05C0D2FC03C05D2D5E7EE9
:10166000552EAB2C54FE93C0FE01EC0DF11D808174
:10167000803309F085C0652D697E562E752D7870F2
:10168000372E53FC93C050FE8DC0BC2CA41410F414
:10169000B40CBA1854FE90C0B70180E390E00E94E9
:1016A000080C52FE07C088E751FC88E590E0B701BE
:1016B0000E94080CCB1408F48BC0CA94D12C8FEF75
:1016C000C81AD80AC80CD91CD6018E916D01B70171
:1016D00090E00E94080C8C149D04B1F757CF6191E3
:1016E0007191072E000C880B990B96CFD52CE8949E
:1016F000D4F82AE0853729F1F52DF97FDF2E8037E0
:10170000A1F058F48835A1F08F36D1F0F701868129
:1017100097812F96E2E10C94E40C8837B9F7D4FE58
:1017200002C06894D2F820E10CC06894D4F8F7CFD6
:1017300054FE03C02F2F2660D22E20E132E002C0DB
:1017400028E030E0F801D7FE15C041915191619138
:1017500071914C875D876E877F878F01A4016C85AF
:101760007D858E859F850E94380CC82EC818E89408
:10177000D7F868CF81919191AC0170E060E0E9CF3A
:1017800052FC02C0A3947ACFA394A39477CF852D63
:10179000867809F473CFF6CFB70180E290E00E941B
:1017A000080CA394A414C0F3312C74CF342C3A1831
:1017B000A41408F46FCFF8CF852D867809F47ACF7A
:1017C0008BE251FE80E257FC8DE2B70190E070CFD2
:1017D000B70180E390E00E94080CBA946BCF8FEFC2
:1017E0009FEF97CFFC010590615070400110D8F732
:1017F000809590958E0F9F1F0895FC016150704059
:1018000001900110D8F7809590958E0F9F1F089535
:101810000F931F93CF93DF93182F092FEB018B8129
:1018200081FD09C01FEF0FEF812F902FDF91CF9126
:101830001F910F91089582FF14C02E813F818C81EA
:101840009D81281739073CF4E881F981CF01019681
:101850009983888310838E819F8101969F838E83D5
:10186000E3CFE885F985812F0995892BA1F3DACF9C
:10187000FA01AA27283051F1203181F1E8946F93C1
:101880006E7F6E5F7F4F8F4F9F4FAF4FB1E03ED067
:10189000B4E03CD0670F781F891F9A1FA11D680F05
:1018A000791F8A1F911DA11D6A0F711D811D911D38
:1018B000A11D20D009F468943F912AE0269F1124AD
:1018C0003019305D3193DEF6CF010895462F477011
:1018D000405D4193B3E00FD0C9F7F6CF462F4F706C
:1018E000405D4A3318F0495D31FD4052419302D0CA
:1018F000A9F7EACFB4E0A695979587957795679570
:10190000BA95C9F700976105710508959B01AC016F
:101910000A2E06945795479537952795BA95C9F796
:10192000620F731F841F951FA01D0895052E97FB3E
:101930001EF400940E94AD0C57FD07D00E94FF0CCE
:1019400007FC03D04EF40C94AD0C509540953095A7
:1019500021953F4F4F4F5F4F08959095809570951B
:1019600061957F4F8F4F9F4F08950E94210DA59F36
:10197000900DB49F900DA49F800D911D112408958A
:10198000B7FF0C94B50C0E94B50C821B930B089505
:101990002F923F924F925F926F927F928F929F927F
:1019A000AF92BF92CF92DF92EF92FF920F931F936D
:1019B000CF93DF93CDB7DEB7CA1BDB0B0FB6F8941E
:1019C000DEBF0FBECDBF09942A88398848885F845E
:1019D0006E847D848C849B84AA84B984C884DF80CF
:1019E000EE80FD800C811B81AA81B981CE0FD11DB3
:1019F0000FB6F894DEBF0FBECDBFED010895A1E292
:101A00001A2EAA1BBB1BFD010DC0AA1FBB1FEE1F78
:101A1000FF1FA217B307E407F50720F0A21BB30BC3
:101A2000E40BF50B661F771F881F991F1A9469F73F
:101A300060957095809590959B01AC01BD01CF019B
:101A40000895A29FB001B39FC001A39F700D811D97
:101A50001124911DB29F700D811D1124911D0895B7
:041A6000F894FFCF28
:101A640002010000000000003F1E47414D45004FA9
:101A740056455200506F696E74733A2000542F50CB
:101A840074733A200025642F256400574841432D80
:101A9400412D4D4F4C452100285720746F207374FD
:101AA4006172742900596F75206861766520256418
:021AB4007300BD
:00000001FF
