:100000000C9424010C9441010C9441010C94410185
:100010000C9441010C9441010C9441010C94410158
:100020000C9441010C9441010C9441010C94750213
:100030000C9441010C9441010C9441010C94410138
:100040000C9441010C9441010C9441010C94410128
:100050000C9441010C9441010C9441010C94410118
:100060000C9441010C944101000000000000005F6D
:1000700000000007000700147F147F14242A7F2A41
:10008000122313086462364955225000050300000C
:10009000001C2241000041221C0014083E081408E4
:1000A000083E0808005030000008080808080060F2
:1000B00060000020100804023E5149453E00427F86
:1000C000400042615149462141454B311814127F8D
:1000D0001027454545393C4A494930017109050316
:1000E0003649494936064949291E0036360000007E
:1000F0005636000008142241001414141414004150
:100100002214080201510906324979413E7E11113B
:10011000117E7F494949363E414141227F4141227A
:100120001C7F494949417F090909013E4149497AF2
:100130007F0808087F00417F41002040413F017F48
:10014000081422417F404040407F020C027F7F0420
:1001500008107F3E4141413E7F090909063E415159
:10016000215E7F09192946464949493101017F012C
:10017000013F4040403F1F2040201F3F4038403F4C
:100180006314081463070870080761514945430068
:100190007F41410002040810200041417F00040219
:1001A0000102044040404040000102040020545439
:1001B00054787F48444438384444442038444448C0
:1001C0007F3854545418087E0901020C5252523E92
:1001D0007F0804047800447D40002040443D007FB7
:1001E0001028440000417F40007C041804787C08FB
:1001F00004047838444444387C1414140808141453
:10020000187C7C080404084854545420043F44409B
:10021000203C4040207C1C2040201C3C4030403C86
:1002200044281028440C5050503C4464544C440022
:100230000836410000007F00000041360800100829
:10024000081008000000000011241FBECFEFD8E006
:10025000DEBFCDBF11E0A0E0B1E0ECEFF8E102C0FD
:1002600005900D92A035B107D9F723E0A0E5B1E0E4
:1002700001C01D92A039B207E1F70E94B6050C94A7
:100280007C0C0C9400000F931F93CF93C82F062F64
:1002900010E00E942809B8010E94CE06C817C9F3D1
:1002A0001092530110925201CF911F910F91089516
:1002B0000F931F93CF93DF93CDB7DEB72E970FB673
:1002C000F894DEBF0FBECDBF182F0E94280323E293
:1002D00042E566E184E30E94210569E187E30E942B
:1002E000120461E085E091E00E9402041F921F93D6
:1002F00083E191E09F938F938E01055F1F4F1F93C2
:100300000F930E94480961E0C8010E94020469E25B
:1003100080E00E94120461E088E091E00E94020403
:10032000809151018F93809150018F9320915401BE
:10033000309155018DE390E0821B930B9F938F9337
:1003400080E191E09F938F930A5011091F930F93BF
:100350000E94480969E287E20E94120461E0C80134
:100360000E9402040FB6F894DEBF0FBECDBF2E96DA
:100370000FB6F894DEBF0FBECDBFDF91CF911F91B6
:100380000F910895FF920F931F93CF93DF9300D0A7
:10039000CDB7DEB7F82E8DB79EB79A838983462FE7
:1003A00050E0EDB7FEB7E41BF50B0FB6F894FEBFB7
:1003B0000FBEEDBF0DB71EB70F5F1F4F6FE470E0AC
:1003C000C8010E944109F801EF0DF11D86E280830A
:1003D00060E085E20E94120461E0F80180810E94E1
:1003E00061036DE080E00E94120461E0F801818108
:1003F0000E9461036DE085E20E94120461E0F80151
:1004000082810E9461036DE088E40E94120461E031
:10041000F80183810E9461036CE185E20E9412046D
:1004200061E0F80184810E94610326E244E566E20E
:1004300080E00E942C040E94170489819A810FB6E3
:10044000F8949EBF0FBE8DBF0F900F90DF91CF919C
:100450001F910F91FF900895CF93DF93CDB7DEB733
:1004600061970FB6F894DEBF0FBECDBF0E94280380
:1004700060E084E10E94120462E086E191E00E9463
:10048000020464E184E10E94120462E08BE191E0E5
:100490000E94020468E280E00E94120461E080E2AF
:1004A00091E00E940204809151018F93809150014C
:1004B0008F9383E191E09F938F938E010F5F1F4F86
:1004C0001F930F930E94480968E28DE20E94120474
:1004D00061E0C8010E9402040E9417040F900F906F
:1004E0000F900F900F900F90FFCF1F920F920FB6AB
:1004F0000F9211242F933F934F935F936F937F93AA
:100500008F939F93AF93BF93EF93FF938091540189
:10051000909155010196909355018093540120913B
:100520005201309153012F5F3F4F3093530120937D
:100530005201CD9710F00E942C02FF91EF91BF91D4
:10054000AF919F918F917F916F915F914F913F916B
:100550002F910F900FBE0F901F901895109285004D
:1005600010928400E1E8F0E08081886080838081DF
:100570008560808389E09DE3909389008093880063
:10058000EFE6F0E0808182608083089529986623F9
:10059000A9F02B9A27E030E090E0AC01022E02C0D7
:1005A000559547950A94E2F740FF0AC02C9A2D9A78
:1005B0002D982150310988F7299A08952B98EACF70
:1005C0002C98F5CF60E00C94C602CF93DF93219A6C
:1005D000229A239A249A259A2A9A299A8FE39CE9A7
:1005E0000197F1F700C000002A989FEF2AE683E008
:1005F000915020408040E1F700C000002A9A2998DD
:1006000081E20E94E20283E10E94E20286E00E940F
:10061000E20282EC0E94E20280E20E94E20289E0B1
:100620000E94E20280E80E94E20280E40E94E2026C
:10063000C8EFD1E061E080E00E94C6022197D1F7C7
:1006400088E00E94E2028CE0DF91CF910C94E202FC
:1006500080E80E94E20280E40E94E20210928E038F
:1006600010928F03E6E9F1E088EF91E0DF019C0151
:100670001D9221503040E1F70895811103C084E2BA
:100680000C94E20280E2FCCF962F96959695969573
:10069000E82FF0E084E5989FE00DF11D1124EA5663
:1006A000FE4F2081677081E090E001C0880F6A955D
:1006B000EAF7442319F0282B2083089580952823F6
:1006C000FBCF8F929F92AF92BF92DF92EF92FF92F9
:1006D0000F931F93CF93DF9300D000D00F92CDB72D
:1006E000DEB7E82FF62E80320CF44DC0E05285E0E4
:1006F000E802B001112468597F4F45E050E0CE0177
:1007000001960E9438098E010F5F1F4F95E0F99EF8
:100710005001112487E0F89E40011124E12CEA14D5
:100720001B040CF463C080918E038F5F9F2D990F83
:10073000990F9F0D890F80938E03843558F0809117
:100740008F0310928E038F5F97E0F99E800D112426
:1007500080938F0380918F03803320F010928E035B
:1007600010928F030F900F900F900F900F90DF91CA
:10077000CF911F910F91FF90EF90DF90BF90AF90BE
:100780009F908F900895EE0FFF0BEA5AFE4F008165
:1007900011810115110509F0B9CF45E050E068E677
:1007A00070E0ADCFED0D5E0D8E2D6F2D0E94C20657
:1007B000D801A80FB11D2C9130E08D2D0E94C206EA
:1007C00002C0359527958A95E2F741E020FF40E089
:1007D0006E2F852F0E944403D394E0918F03509194
:1007E0008E03D8141904F4F2E39499CFD12CF5CFE9
:1007F000E82F803234F4EE0FFF0BEA5AFE4F71837C
:10080000608308951F93CF93DF93162FEC01899196
:10081000811104C0DF91CF911F910895612F0E9433
:100820006103F5CF80938E0360938F030895CF9378
:10083000DF9380E80E94E20280E40E94E202C6E9BF
:10084000D1E061E089910E94C60283E0CE38D807EA
:10085000C1F7DF91CF9108954F925F926F927F928F
:100860008F929F92AF92BF92CF92DF92EF92FF92C0
:10087000CF93DF93CDB7DEB762970FB6F894DEBFA4
:100880000FBECDBF8D876987F22E481B550BCA015D
:10089000550FAA0BBB0B89839A83AB83BC83BC0126
:1008A000CD010E940B0869837A838B839C83AF2DD3
:1008B0004985A41BBB0BCD01BB0FAA0BBB0B8D83C2
:1008C0009E83AF83B887BC01CD010E940B086D8366
:1008D0007E838F839887C980DA80EB80FC80E894E0
:1008E000F7F84B015C01E894B7F8A5019401C70142
:1008F000B6010E94BB0887FF02C075016401A70111
:10090000960169817A818B819C810E946807698345
:100910007A838B839C834B015C01A70196016D81D7
:100920007E818F8198850E9468072B013C019D85FF
:10093000892F90E0B0E0A0E089839A83AB83BC83E9
:10094000BC01CD010E94090869837A838B839C8353
:100950009985892F90E0B0E0A0E08D839E83AF83DE
:10096000B887BC01CD010E9409086D837E838F8307
:100970009887A1E0B0E0BA8BA98B89899A89092E62
:10098000000CAA0BBB0B89879A87AB87BC87BC017D
:10099000CD010E940B0869877A878B879C87A70106
:1009A00096010E9463071816ACF462960FB6F8948D
:1009B000DEBF0FBECDBFDF91CF91FF90EF90DF90F4
:1009C000CF90BF90AF909F908F907F906F905F90EF
:1009D0004F9008956D817E818F8198850E94DA07FE
:1009E00069877A878B879C8769817A818B819C81D3
:1009F0000E94DA076D877E878F87988B41E0698533
:100A00008D850E944403A501940169817A818B81BF
:100A10009C810E94F70669837A838B839C83A30160
:100A200092016D817E818F8198850E94F7066D838A
:100A30007E838F83988789899A8901969A8B898B7F
:100A40009CCF0F931F93CF93DF93C82F162F042FA4
:100A5000D22F262F0E942C042D2F402F612F802F64
:100A60000E942C042D2F4C2F6D2F802F0E942C04C0
:100A7000212F4C2F6D2F8C2FDF91CF911F910F9134
:100A80000C942C047F928F929F92AF92BF92CF9240
:100A9000DF92EF92FF920F931F93CF93DF93D82EA5
:100AA000C62EC42FD0E0F12CE12C10E000E041E094
:100AB000AC2CA00E6A2DBC2EBD0C8B2D0E944403C5
:100AC00041E08C2E8C0C682D9D2C900E892D0E945F
:100AD000440341E0682D7D2C701A872D0E94440349
:100AE00041E06A2D8D2C8C1A882D0E94440341E030
:100AF000AC2CA01A6A2D882D0E94440341E08C2C56
:100B00008C1A682D872D0E94440341E0682D892DA1
:100B10000E94440341E06A2D8B2D0E9444031E1461
:100B20001F045CF00F5F1F4FC801880F991F0196CB
:100B3000E80EF91E1E141F043CF42197CE01880F05
:100B4000991F0196E81AF90AC017D1070CF0AFCF28
:100B5000DF91CF911F910F91FF90EF90DF90CF9099
:100B6000BF90AF909F908F907F900895CDB7DEB7E4
:100B700065970FB6F894DEBF0FBECDBFF89487B16E
:100B8000886387B98AB1807E8AB98BB18F618BB94E
:100B90000E94E5020E9428030E94AE022FE243E574
:100BA00060E080E00E9421056AE087E00E94120474
:100BB00061E089E291E00E94020464E186E00E9423
:100BC000120461E086E391E00E94020463E285E0A2
:100BD0000E9412041F928CE38F9383E491E09F9311
:100BE0008F938E010F5F1F4F1F930F930E94480931
:100BF00061E0C8010E9402040E9417040F900F9048
:100C00000F900F900F900F9090E080E0489987C070
:100C1000489BFECF0E942D0978940E94280965E028
:100C200070E00E94CE06182F00E0612C712CCC24BD
:100C3000C394D12C552453945E0184E1A80EB11CB9
:100C40008DB79EB79D8B8C8B802F0E945801209171
:100C5000000180915201909153012817190609F063
:100C600030F40F5F65E0812F0E944301182F65E08B
:100C7000812F0E94C2011F86188A198A1A8A1B8A2C
:100C8000F12CE12C89B190E00E2C02C0959587954E
:100C90000A94E2F780FD4DC046010E2C02C0880C7C
:100CA000991C0A94E2F789B190E088219921892B57
:100CB000C1F1EFE0F0E0EC0FFD1FEE0DFF1D5082E3
:100CC000EFE0F0E0EC0FFD1FE10FF11D8081FE0170
:100CD0003F968823D1F18091500190915101019666
:100CE000909351018093500165E0812F0E94430150
:100CF000182F00E0711036C0809150019091510181
:100D00000A9781F5809100018695809300017724F0
:100D100073940FB6F894DEBF0FBECDBF91CF01968E
:100D200075CF802F0E94580165E0812F0E94C2017B
:100D3000BACF9FEFE91AF90A85E0E816F10409F045
:100D4000A1CFBECFAE16BF0649F081918823D1F363
:100D50000F5F65E0812F0E944301182F0A3051F682
:100D60000E942C026110D5CF8091500190915101C9
:100D70000F9779F680910001869580930001662493
:100D80006394C7CF991B79E004C0991F961708F0A8
:100D9000961B881F7A95C9F78095089597FB072EB3
:100DA00016F4009407D077FD09D00E94E20607FCF4
:100DB00005D03EF4909581959F4F0895709561956B
:100DC0007F4F0895AA1BBB1B51E107C0AA1FBB1F81
:100DD000A617B70710F0A61BB70B881F991F5A95C7
:100DE000A9F780959095BC01CD0108955058BB2777
:100DF000AA270E940E070C9481080E94730838F0FD
:100E00000E947A0820F039F49F3F19F426F40C94DC
:100E100070080EF4E095E7FB0C946A08E92F0E9435
:100E2000920858F3BA17620773078407950720F0F2
:100E300079F4A6F50C94B4080EF4E0950B2EBA2FB5
:100E4000A02D0B01B90190010C01CA01A0011124D0
:100E5000FF27591B99F0593F50F4503E68F11A167C
:100E6000F040A22F232F342F4427585FF3CF46950D
:100E700037952795A795F0405395C9F77EF41F162F
:100E8000BA0B620B730B840BBAF09150A1F0FF0FF9
:100E9000BB1F661F771F881FC2F70EC0BA0F621FE5
:100EA000731F841F48F4879577956795B795F795D5
:100EB0009E3F08F0B0CF9395880F08F09927EE0F6A
:100EC0009795879508950E94460808F481E0089553
:100ED0000E947C070C9481080E947A0858F00E94B6
:100EE000730840F029F45F3F29F00C946A0851110F
:100EF0000C94B5080C9470080E94920868F399232A
:100F0000B1F3552391F3951B550BBB27AA27621705
:100F10007307840738F09F5F5F4F220F331F441F12
:100F2000AA1FA9F335D00E2E3AF0E0E832D0915046
:100F30005040E695001CCAF72BD0FE2F29D0660F33
:100F4000771F881FBB1F261737074807AB07B0E876
:100F500009F0BB0B802DBF01FF2793585F4F3AF07C
:100F60009E3F510578F00C946A080C94B5085F3FD9
:100F7000E4F3983ED4F3869577956795B795F79502
:100F80009F5FC9F7880F911D9695879597F90895EA
:100F9000E1E0660F771F881FBB1F62177307840786
:100FA000BA0720F0621B730B840BBA0BEE1F88F795
:100FB000E09508950E949A0888F09F5798F0B92FFD
:100FC0009927B751B0F0E1F0660F771F881F991F7E
:100FD0001AF0BA95C9F714C0B13091F00E94B40864
:100FE000B1E008950C94B408672F782F8827B85F74
:100FF00039F0B93FCCF3869577956795B395D9F7D6
:101000003EF490958095709561957F4F8F4F9F4FDF
:101010000895E89409C097FB3EF4909580957095EB
:1010200061957F4F8F4F9F4F9923A9F0F92F96E934
:10103000BB279395F695879577956795B795F111A9
:10104000F8CFFAF4BB0F11F460FF1BC06F5F7F4F46
:101050008F4F9F4F16C0882311F096E911C0772358
:1010600021F09EE8872F762F05C0662371F096E861
:10107000862F70E060E02AF09A95660F771F881F30
:10108000DAF7880F9695879597F90895990F0008D4
:10109000550FAA0BE0E8FEEF16161706E807F9074A
:1010A000C0F012161306E407F50798F0621B730BE5
:1010B000840B950B39F40A2661F0232B242B252B66
:1010C00021F408950A2609F4A140A6958FEF811D09
:1010D000811D089597F99F6780E870E060E00895AA
:1010E0009FEF80EC089500240A9416161706180640
:1010F0000906089500240A9412161306140605061C
:101100000895092E0394000C11F4882352F0BB0FAC
:1011100040F4BF2B11F460FF04C06F5F7F4F8F4F0F
:101120009F4F089557FD9058440F551F59F05F3F4A
:1011300071F04795880F97FB991F61F09F3F79F0F9
:1011400087950895121613061406551FF2CF46957B
:10115000F1DF08C0161617061806991FF1CF8695FD
:101160007105610508940895E894BB2766277727E1
:10117000CB0197F908950E94460808F48FEF08956F
:10118000CF92DF92EF92FF92CF93DF93CDB7DEB78E
:101190002A970FB6F894DEBF0FBECDBF89879A8716
:1011A000A985BA852D913D914D915C9129833A8312
:1011B0004B835C83232B242B252B41F424E239ED34
:1011C0004BE557E029833A834B835C8369817A81BD
:1011D0008B819C812DE133EF41E050E00E94E20BD6
:1011E00069017A01A7EAB1E49B01AC010E94010CFC
:1011F00069837A838B839C83ACEEB4EFA70196015D
:101200000E940F0C9B01AC0189819A81AB81BC814A
:10121000820F931FA41FB51FB7FF03C00197A10939
:10122000B048E985FA8580839183A283B3839F7751
:101230002A960FB6F894DEBF0FBECDBFDF91CF91D7
:10124000FF90EF90DF90CF9008950E94C00808951E
:1012500081E091E00E94C0080895B0E0A0E0809392
:10126000010190930201A0930301B093040108953A
:10127000FB01DC0102C005900D9241505040D8F7AF
:101280000895DC0101C06D9341505040E0F708958E
:10129000AEE0B0E0EEE4F9E00C94220C0D891E897A
:1012A00086E08C831A8309838FEF9FE79E838D836B
:1012B000AE01475E5F4F6F89788DCE0101960E9427
:1012C0006B092F813885020F131FF80110822E96AB
:1012D000E4E00C943E0CAFE0B0E0E1E7F9E00C9400
:1012E000140C7C013B018A01DC0117961C921E92B2
:1012F000169713968C9181FFBEC19AE0292EFE01AC
:1013000031964F01D70113969C91F30193FD85917E
:1013100093FF81913F01882309F444C1853239F458
:1013200093FD859193FF81913F01853229F4B701A7
:1013300090E00E94540BE6CFB12C412C512CBFE120
:10134000B51538F08B3209F188F4803201F183321F
:1013500021F157FC3AC020ED280F2A3040F556FE07
:101360001FC0B29C200D1124B22E06C08D3291F008
:10137000803379F7689450F8F30193FD859193FFDA
:1013800081913F018111DBCF20C0689451F86894AE
:1013900052F8F2CF689453F8EFCF689454F8ECCF3A
:1013A000429C200D1124422E689455F8E5CF8E32D0
:1013B00029F456FCF7C0689456F8DECF8C3619F441
:1013C000689457F8D9CF8836B9F2982F9F7D9554F5
:1013D0009330C0F0833681F18337A1F1833509F072
:1013E0005BC0D801CD90DD908D016B2D70E056FC77
:1013F00002C06FEF7FEFC6010E943E0B5C01689454
:1014000057F80AC00C5F1F4FEFE3E983AA24A394A7
:10141000B12C6401E89457F853FE29C0342CA11470
:10142000B10451F5332009F46DCFB70180E290E0AB
:101430000E94540B3A94F6CFD8018C9189830E5FA9
:101440001F4FE4CFF801C190D1908F016B2D70E058
:1014500056FC02C06FEF7FEFC6010E94490B5C0192
:10146000D9CFB70180E290E00E94540B4A944A140D
:101470001B0409F0B0F7D2CFF60157FC859157FE57
:1014800081916F01B70190E00E94540B31103A94A2
:10149000B1E0AB1AB108C3CF843619F0893609F030
:1014A00071C0F80157FE67C061917191819191916E
:1014B0008F01E52DEF76DE2E97FF09C09095809580
:1014C000709561957F4F8F4F9F4F6894D7F82AE0B2
:1014D00030E0A4010E94840BC82EC818AC2C5D2CEF
:1014E000D6FE0CC0E89450F8CB1440F4D4FE05C0EE
:1014F000D2FC03C05D2D5E7E552EAB2C54FE93C0F6
:10150000FE01EC0DF11D8081803309F085C0652D51
:10151000697E562E752D7870372E53FC93C050FE81
:101520008DC0BC2CA41410F4B40CBA1854FE90C096
:10153000B70180E390E00E94540B52FE07C088E799
:1015400051FC88E590E0B7010E94540BCB1408F4DD
:101550008BC0CA94D12C8FEFC81AD80AC80CD91CDA
:10156000D6018E916D01B70190E00E94540B8C144E
:101570009D04B1F757CF61917191072E000C880B34
:10158000990B96CFD52CE894D4F82AE0853729F129
:10159000F52DF97FDF2E8037A1F058F48835A1F0C2
:1015A0008F36D1F0F701868197812F96E2E10C9476
:1015B000300C8837B9F7D4FE02C06894D2F820E125
:1015C0000CC06894D4F8F7CF54FE03C02F2F2660C8
:1015D000D22E20E132E002C028E030E0F801D7FE50
:1015E00015C041915191619171914C875D876E87D2
:1015F0007F878F01A4016C857D858E859F850E94E4
:10160000840BC82EC818E894D7F868CF81919191BF
:10161000AC0170E060E0E9CF52FC02C0A3947ACF45
:10162000A394A39477CF852D867809F473CFF6CF52
:10163000B70180E290E00E94540BA394A414C0F37D
:10164000312C74CF342C3A18A41408F46FCFF8CF8F
:10165000852D867809F47ACF8BE251FE80E257FC23
:101660008DE2B70190E070CFB70180E390E00E9477
:10167000540BBA946BCF8FEF9FEF97CFFC0105907F
:10168000615070400110D8F7809590958E0F9F1F84
:101690000895FC016150704001900110D8F78095C9
:1016A00090958E0F9F1F08950F931F93CF93DF93F5
:1016B000182F092FEB018B8181FD09C01FEF0FEF60
:1016C000812F902FDF91CF911F910F91089582FF6D
:1016D00014C02E813F818C819D81281739073CF4ED
:1016E000E881F981CF0101969983888310838E81E7
:1016F0009F8101969F838E83E3CFE885F985812FB3
:101700000995892BA1F3DACFFA01AA27283051F1E4
:10171000203181F1E8946F936E7F6E5F7F4F8F4F22
:101720009F4FAF4FB1E03ED0B4E03CD0670F781F81
:10173000891F9A1FA11D680F791F8A1F911DA11D66
:101740006A0F711D811D911DA11D20D009F468949F
:101750003F912AE0269F11243019305D3193DEF647
:10176000CF010895462F4770405D4193B3E00FD0FD
:10177000C9F7F6CF462F4F70405D4A3318F0495DE8
:1017800031FD4052419302D0A9F7EACFB4E0A695CB
:101790009795879577956795BA95C9F700976105ED
:1017A000710508959B01AC010A2E06945795479543
:1017B00037952795BA95C9F7620F731F841F951F38
:1017C000A01D0895052E97FB1EF400940E94F90BAE
:1017D00057FD07D00E944B0C07FC03D04EF40C942D
:1017E000F90B50954095309521953F4F4F4F5F4FE6
:1017F000089590958095709561957F4F8F4F9F4F7D
:1018000008950E946D0CA59F900DB49F900DA49F0C
:10181000800D911D11240895B7FF0C94010C0E94B6
:10182000010C821B930B08952F923F924F925F926F
:101830006F927F928F929F92AF92BF92CF92DF92E0
:10184000EF92FF920F931F93CF93DF93CDB7DEB745
:10185000CA1BDB0B0FB6F894DEBF0FBECDBF0994D9
:101860002A88398848885F846E847D848C849B8430
:10187000AA84B984C884DF80EE80FD800C811B813E
:10188000AA81B981CE0FD11D0FB6F894DEBF0FBE6D
:10189000CDBFED010895A1E21A2EAA1BBB1BFD01CD
:1018A0000DC0AA1FBB1FEE1FFF1FA217B307E4073F
:1018B000F50720F0A21BB30BE40BF50B661F771F97
:1018C000881F991F1A9469F7609570958095909577
:1018D0009B01AC01BD01CF010895A29FB001B39F50
:1018E000C001A39F700D811D1124911DB29F700D29
:0C18F000811D1124911D0895F894FFCF74
:1018FC0004010000004D3A00542F5074733A20003C
:10190C0025642F25640047414D45004F5645520034
:10191C00506F696E74733A2000574841432D412D26
:10192C004D4F4C452100285720746F207374617201
:10193C00742900596F7520686176652025647300E1
:00000001FF
