:100000000C9424010C9441010C9441010C94410185
:100010000C9441010C9441010C9441010C94410158
:100020000C9441010C9441010C9441010C94430146
:100030000C9441010C9441010C9441010C94410138
:100040000C9441010C9441010C9441010C94410128
:100050000C9441010C9441010C9441010C94410118
:100060000C9441010C944101000000000000005F6D
:1000700000000007000700147F147F14242A7F2A41
:10008000122313086462364955225000050300000C
:10009000001C2241000041221C0014083E081408E4
:1000A000083E0808005030000008080808080060F2
:1000B00060000020100804023E5149453E00427F86
:1000C000400042615149462141454B311814127F8D
:1000D0001027454545393C4A494930017109050316
:1000E0003649494936064949291E0036360000007E
:1000F0005636000008142241001414141414004150
:100100002214080201510906324979413E7E11113B
:10011000117E7F494949363E414141227F4141227A
:100120001C7F494949417F090909013E4149497AF2
:100130007F0808087F00417F41002040413F017F48
:10014000081422417F404040407F020C027F7F0420
:1001500008107F3E4141413E7F090909063E415159
:10016000215E7F09192946464949493101017F012C
:10017000013F4040403F1F2040201F3F4038403F4C
:100180006314081463070870080761514945430068
:100190007F41410002040810200041417F00040219
:1001A0000102044040404040000102040020545439
:1001B00054787F48444438384444442038444448C0
:1001C0007F3854545418087E0901020C5252523E92
:1001D0007F0804047800447D40002040443D007FB7
:1001E0001028440000417F40007C041804787C08FB
:1001F00004047838444444387C1414140808141453
:10020000187C7C080404084854545420043F44409B
:10021000203C4040207C1C2040201C3C4030403C86
:1002200044281028440C5050503C4464544C440022
:100230000836410000007F00000041360800100829
:10024000081008000000000011241FBECFEFD8E006
:10025000DEBFCDBF11E0A0E0B1E0E2E5F7E102C012
:1002600005900D92A234B107D9F723E0A2E4B1E0E2
:1002700001C01D92A038B207E1F70E9454050C940A
:10028000A70B0C9400001F920F920FB60F9211242F
:10029000EF92FF920F931F932F933F934F935F9390
:1002A0006F937F938F939F93AF93BF93EF93FF933E
:1002B000CF93DF93CDB7DEB76197DEBFCDBF80911F
:1002C000440190914501019690934501809344012A
:1002D00020910001309101012F5F3F4F30930101C8
:1002E00020930001C39709F041C084E2E82E81E029
:1002F000F82E8E010F5F1F4F0E94FB0260E084E129
:100300000E94E50362E086E091E00E94D50364E18B
:1003100084E10E94E50362E08BE091E00E94D50356
:1003200068E280E00E94E50361E080E191E00E94E4
:10033000D503809143018F93809142018F93FF9267
:10034000EF921F930F930E94730868E28DE20E9460
:10035000E50361E0C8010E94D5030E943F050F90AC
:100360000F900F900F900F900F90C6CF61960FB621
:10037000F894DEBF0FBECDBFDF91CF91FF91EF911B
:10038000BF91AF919F918F917F916F915F914F91AD
:100390003F912F911F910F91FF90EF900F900FBE03
:1003A0000F901F9018950F931F93CF93DF93CDB7A6
:1003B000DEB72A970FB6F894DEBF0FBECDBF0E94FE
:1003C000FB0268E280E00E94E50361E089E191E0E0
:1003D0000E94D503809143018F93809142018F93B6
:1003E000209144013091450183E390E0821B930BFF
:1003F0009F938F9381E291E09F938F938E010F5F84
:100400001F4F1F930F930E94730868E287E20E94B8
:10041000E50361E0C8010E94D5030FB6F894DEBF82
:100420000FBECDBF2A960FB6F894DEBF0FBECDBF6C
:10043000DF91CF911F910F910895FF920F931F931A
:10044000CF93DF9300D0CDB7DEB7F82E8DB79EB730
:100450009A838983462F50E0EDB7FEB7E41BF50B76
:100460000FB6F894FEBF0FBEEDBF0DB71EB70F5FFE
:100470001F4F6FE470E0C8010E946C08F801EF0D97
:10048000F11D81E4808365E08AE00E94E50361E07C
:10049000F80180810E94340365E081E40E94E50355
:1004A00061E0F80181810E9434036FE085E20E94DF
:1004B000E50361E0F80182810E94340369E18AE08A
:1004C0000E94E50361E0F80183810E94340369E141
:1004D00081E40E94E50361E0F80184810E94340315
:1004E0000E943F0589819A810FB6F8949EBF0FBE86
:1004F0008DBF0F900F90DF91CF911F910F91FF90C3
:1005000008951092850010928400E1E8F0E0808167
:100510008860808380818560808389E09DE39093FB
:10052000890080938800EFE6F0E08081826080831C
:10053000089529986623A9F02B9A27E030E090E0EF
:10054000AC01022E02C0559547950A94E2F740FF90
:100550000AC02C9A2D9A2D982150310988F7299A92
:1005600008952B98EACF2C98F5CF60E00C9499026F
:10057000CF93DF93219A229A239A249A259A2A9A32
:10058000299A8FE39CE90197F1F700C000002A98AF
:100590009FEF2AE683E0915020408040E1F700C0C1
:1005A00000002A9A299881E20E94B50283E10E9404
:1005B000B50286E00E94B50282EC0E94B50280E29C
:1005C0000E94B50289E00E94B50280E80E94B5024F
:1005D00080E40E94B502C8EFD1E061E080E00E94B3
:1005E00099022197D1F788E00E94B5028CE0DF9153
:1005F000CF910C94B50280E80E94B50280E40E947D
:10060000B50210927E0310927F03E6E8F1E088EFD6
:1006100091E0DF019C011D9221503040E1F70895E7
:10062000811103C084E20C94B50280E2FCCF962FC6
:10063000969596959695E82FF0E084E5989FE00DC5
:10064000F11D1124EA57FE4F2081677081E090E090
:1006500001C0880F6A95EAF7442319F0282B2083FC
:10066000089580952823FBCF8F929F92AF92BF92DF
:10067000DF92EF92FF920F931F93CF93DF9300D0FF
:1006800000D00F92CDB7DEB7E82FF62E80320CF4F3
:100690004DC0E05285E0E802B001112468597F4F57
:1006A00045E050E0CE0101960E9463088E010F5F85
:1006B0001F4F95E0F99E5001112487E0F89E4001FC
:1006C0001124E12CEA141B040CF463C080917E0316
:1006D0008F5F9F2D990F990F9F0D890F80937E0338
:1006E000843558F080917F0310927E038F5F97E0EE
:1006F000F99E800D112480937F0380917F038033C6
:1007000020F010927E0310927F030F900F900F90B5
:100710000F900F90DF91CF911F910F91FF90EF906D
:10072000DF90BF90AF909F908F900895EE0FFF0BDA
:10073000EA5BFE4F008111810115110509F0B9CF67
:1007400045E050E068E670E0ADCFED0D5E0D8E2D1A
:100750006F2D0E941B06D801A80FB11D2C9130E00F
:100760008D2D0E941B0602C0359527958A95E2F7CC
:1007700041E020FF40E06E2F852F0E941703D394A5
:10078000E0917F0350917E03D8141904F4F2E394AE
:1007900099CFD12CF5CFE82F803234F4EE0FFF0B38
:1007A000EA5BFE4F7183608308951F93CF93DF93BD
:1007B000162FEC018991811104C0DF91CF911F9117
:1007C0000895612F0E943403F5CF80937E036093D8
:1007D0007F0308953F924F925F926F927F928F9224
:1007E0009F92AF92BF92CF92DF92EF92FF920F93C0
:1007F0001F93CF93DF93CDB7DEB72D970FB6F89445
:10080000DEBF0FBECDBF89876D87042F081B122F57
:10081000161B302E011708F4312E832D90E0B0E026
:10082000A0E089839A83AB83BC83BC01CD010E9485
:100830005F076B017C01802F90E0B0E0A0E089832E
:100840009A83AB83BC83BC01CD010E945D076983A1
:100850007A838B839C83A70196010E94BC062B019F
:100860003C01812F90E0B0E0A0E089839A83AB83C4
:10087000BC83BC01CD010E945D0769837A838B83B1
:100880009C83A70196010E94BC066B017C0199859F
:10089000892F90E0B0E0A0E089839A83AB83BC838A
:1008A000BC01CD010E945D0769837A838B839C83A1
:1008B0009D85892F90E0B0E0A0E08D839E83AF837B
:1008C000B887BC01CD010E945D076D837E838F8355
:1008D000988741E06D8589850E9417031D86BD8537
:1008E000B31118C02D960FB6F894DEBF0FBECDBF62
:1008F000DF91CF911F910F91FF90EF90DF90CF90FC
:10090000BF90AF909F908F907F906F905F904F902F
:100910003F900895A301920169817A818B819C8126
:100920000E94500669837A838B839C83A70196017A
:100930006D817E818F8198850E9450066D837E83B4
:100940008F8398870E942E0769877A878B879C8779
:100950004B0169817A818B819C810E942E07698776
:100960007A878B879C8741E0682D89850E941703D1
:10097000AD85AF5FAD87B3CFAF92BF92CF92DF921D
:10098000EF92FF920F931F93CF93DF93082FF62ED2
:10099000C42FD1E0D41B10E041E0DF2CD10E6D2D2F
:1009A000E02EEC0E8E2D0E94170341E0BF2CBC0EF2
:1009B0006B2DC02EC10E8C2D0E94170341E06B2DB4
:1009C000A02EA11A8A2D0E94170341E06D2DB02E92
:1009D000BC1A8B2D0E94170341E0DF2CD11A6D2D1C
:1009E0008B2D0E94170341E0BF2CBC1A6B2D8A2D62
:1009F0000E94170341E06B2D8C2D0E94170341E0EC
:100A00006D2D8E2D0E941703D11112C01F5FD12FA3
:100A1000DD0FDF5FC11708F0BFCFDF91CF911F91CE
:100A20000F91FF90EF90DF90CF90BF90AF9008951F
:100A3000C150DF5F8C2F880FD81BECCF0F931F9313
:100A4000CF93DF93082FD62FC42F122F262F0E946B
:100A5000EA03212F4C2F612F802F0E94EA03212FC0
:100A6000402F6D2F802F0E94EA03212F4C2F6D2FD6
:100A70008C2FDF91CF911F910F910C94EA03CF93AC
:100A8000DF9380E80E94B50280E40E94B502C6E8C8
:100A9000D1E061E089910E94990283E0CE37D807C6
:100AA000C1F7DF91CF91089500D000D000D00F9210
:100AB000CDB7DEB7F89487B1886387B98AB1807EF5
:100AC0008AB98BB18F618BB90E94B8020E94FB0278
:100AD0000E94810210E000E048997DC0489BFECF53
:100AE000C8010E94580878940E94530865E070E09D
:100AF0000E942706182FEE24E394F12C01E05E01FA
:100B000086E0A80EB11C95E0C92ED12C8DB79EB7FA
:100B10009F838E830E94D3018090000190900101F9
:100B200095E08916910451F40E945308B4010E9483
:100B30002706182FF0920101E092000165E0812F55
:100B40000E941D0219821A821B821C821D82712C36
:100B5000612C89B190E0062C02C0959587950A9486
:100B6000E2F780FD56C04701062C02C0880C991C94
:100B70000A94E2F789B190E088219921892B09F440
:100B800041C0E1E0F0E0EC0FFD1FE60DF71D008332
:100B9000E1E0F0E0EC0FFD1FE10FF11D8081882303
:100BA00009F440C0809142019091430101969093D5
:100BB0004301809342010E945308B6010E94270618
:100BC000182FF0920101E09200010FB6F894DEBFF9
:100BD0000FBECDBF9BCF6FE087E00E94E50361E0D1
:100BE00087E291E00E94D50369E186E00E94E50377
:100BF00061E084E391E00E94D5030E943F050F5F0E
:100C00001F4F6ACF0E94D30165E0812F0E941D0211
:100C1000B1CF8FEF681A780A95E06916710409F070
:100C200098CFB6CFFE01319681918111C4CFAE1617
:100C3000BF06D1F7C6CF991B79E004C0991F96175C
:100C400008F0961B881F7A95C9F78095089597FB41
:100C5000072E16F4009407D077FD09D00E943B06BA
:100C600007FC05D03EF4909581959F4F08957095AF
:100C700061957F4F0895AA1BBB1B51E107C0AA1FB6
:100C8000BB1FA617B70710F0A61BB70B881F991F2D
:100C90005A95A9F780959095BC01CD0108955058BB
:100CA000BB27AA270E9467060C94B1070E94A307DE
:100CB00038F00E94AA0720F039F49F3F19F426F477
:100CC0000C94A0070EF4E095E7FB0C949A07E92F2B
:100CD0000E94C20758F3BA17620773078407950783
:100CE00020F079F4A6F50C94E4070EF4E0950B2EB1
:100CF000BA2FA02D0B01B90190010C01CA01A0016E
:100D00001124FF27591B99F0593F50F4503E68F1C8
:100D10001A16F040A22F232F342F4427585FF3CF09
:100D2000469537952795A795F0405395C9F77EF4DA
:100D30001F16BA0B620B730B840BBAF09150A1F023
:100D4000FF0FBB1F661F771F881FC2F70EC0BA0FA9
:100D5000621F731F841F48F4879577956795B79531
:100D6000F7959E3F08F0B0CF9395880F08F099272C
:100D7000EE0F9795879508950E94D0060C94B107C1
:100D80000E94AA0758F00E94A30740F029F45F3F91
:100D900029F00C949A0751110C94E5070C94A007C4
:100DA0000E94C20768F39923B1F3552391F3951B71
:100DB000550BBB27AA2762177307840738F09F5F7C
:100DC0005F4F220F331F441FAA1FA9F335D00E2EE9
:100DD0003AF0E0E832D091505040E695001CCAF756
:100DE0002BD0FE2F29D0660F771F881FBB1F261719
:100DF00037074807AB07B0E809F0BB0B802DBF01F0
:100E0000FF2793585F4F3AF09E3F510578F00C94BE
:100E10009A070C94E5075F3FE4F3983ED4F3869578
:100E200077956795B795F7959F5FC9F7880F911DDF
:100E30009695879597F90895E1E0660F771F881FCB
:100E4000BB1F621773078407BA0720F0621B730B7E
:100E5000840BBA0BEE1F88F7E09508950E94CA072D
:100E600088F09F5798F0B92F9927B751B0F0E1F06B
:100E7000660F771F881F991F1AF0BA95C9F714C01B
:100E8000B13091F00E94E407B1E008950C94E407BA
:100E9000672F782F8827B85F39F0B93FCCF3869554
:100EA00077956795B395D9F73EF4909580957095B1
:100EB00061957F4F8F4F9F4F0895E89409C097FB2E
:100EC0003EF490958095709561957F4F8F4F9F4F21
:100ED0009923A9F0F92F96E9BB279395F695879565
:100EE00077956795B795F111F8CFFAF4BB0F11F428
:100EF00060FF1BC06F5F7F4F8F4F9F4F16C08823CF
:100F000011F096E911C0772321F09EE8872F762F04
:100F100005C0662371F096E8862F70E060E02AF045
:100F20009A95660F771F881FDAF7880F9695879531
:100F300097F9089597F99F6780E870E060E0089559
:100F40009FEF80EC089500240A94161617061806E1
:100F50000906089500240A941216130614060506BD
:100F60000895092E0394000C11F4882352F0BB0F4E
:100F700040F4BF2B11F460FF04C06F5F7F4F8F4FB1
:100F80009F4F089557FD9058440F551F59F05F3FEC
:100F900071F04795880F97FB991F61F09F3F79F09B
:100FA00087950895121613061406551FF2CF46951D
:100FB000F1DF08C0161617061806991FF1CF86959F
:100FC0007105610508940895E894BB276627772783
:100FD000CB0197F90895CF92DF92EF92FF92CF93D2
:100FE000DF93CDB7DEB72A970FB6F894DEBF0FBEFA
:100FF000CDBF89879A87A985BA852D913D914D915D
:101000005C9129833A834B835C83232B242B252BF0
:1010100041F424E239ED4BE557E029833A834B83D1
:101020005C8369817A818B819C812DE133EF41E082
:1010300050E00E940D0B69017A01A7EAB1E49B011F
:10104000AC010E942C0B69837A838B839C83ACEE6A
:10105000B4EFA70196010E943A0B9B01AC01898174
:101060009A81AB81BC81820F931FA41FB51FB7FF6C
:1010700003C00197A109B048E985FA85808391836F
:10108000A283B3839F772A960FB6F894DEBF0FBE74
:10109000CDBFDF91CF91FF90EF90DF90CF9008957B
:1010A0000E94EB07089582E091E00E94EB0708950B
:1010B000B0E0A0E08093020190930301A0930401AB
:1010C000B09305010895FB01DC0102C005900D926B
:1010D00041505040D8F70895DC0101C06D93415054
:1010E0005040E0F70895AEE0B0E0E9E7F8E00C9496
:1010F0004D0B0D891E8986E08C831A8309838FEF3F
:101100009FE79E838D83AE01475E5F4F6F89788D29
:10111000CE0101960E9496082F813885020F131F79
:10112000F80110822E96E4E00C94690BAFE0B0E079
:10113000ECE9F8E00C943F0B7C013B018A01DC01F7
:1011400017961C921E92169713968C9181FFBEC122
:101150009AE0292EFE0131964F01D70113969C91FA
:10116000F30193FD859193FF81913F01882309F459
:1011700044C1853239F493FD859193FF81913F01FC
:10118000853229F4B70190E00E947F0AE6CFB12CA6
:10119000412C512CBFE1B51538F08B3209F188F4A0
:1011A000803201F1833221F157FC3AC020ED280F43
:1011B0002A3040F556FE1FC0B29C200D1124B22EDD
:1011C00006C08D3291F0803379F7689450F8F301BE
:1011D00093FD859193FF81913F018111DBCF20C069
:1011E000689451F8689452F8F2CF689453F8EFCFAE
:1011F000689454F8ECCF429C200D1124422E689440
:1012000055F8E5CF8E3229F456FCF7C0689456F8AD
:10121000DECF8C3619F4689457F8D9CF8836B9F2F6
:10122000982F9F7D95549330C0F0833681F183379A
:10123000A1F1833509F05BC0D801CD90DD908D011F
:101240006B2D70E056FC02C06FEF7FEFC6010E946D
:10125000690A5C01689457F80AC00C5F1F4FEFE3FE
:10126000E983AA24A394B12C6401E89457F853FEAF
:1012700029C0342CA114B10451F5332009F46DCFE9
:10128000B70180E290E00E947F0A3A94F6CFD8013D
:101290008C9189830E5F1F4FE4CFF801C190D190EC
:1012A0008F016B2D70E056FC02C06FEF7FEFC6011F
:1012B0000E94740A5C01D9CFB70180E290E00E94DD
:1012C0007F0A4A944A141B0409F0B0F7D2CFF60102
:1012D00057FC859157FE81916F01B70190E00E9404
:1012E0007F0A31103A94B1E0AB1AB108C3CF84360B
:1012F00019F0893609F071C0F80157FE67C0619195
:101300007191819191918F01E52DEF76DE2E97FFFE
:1013100009C090958095709561957F4F8F4F9F4F35
:101320006894D7F82AE030E0A4010E94AF0AC82EE2
:10133000C818AC2C5D2CD6FE0CC0E89450F8CB1429
:1013400040F4D4FE05C0D2FC03C05D2D5E7E552E58
:10135000AB2C54FE93C0FE01EC0DF11D8081803357
:1013600009F085C0652D697E562E752D7870372E53
:1013700053FC93C050FE8DC0BC2CA41410F4B40CCC
:10138000BA1854FE90C0B70180E390E00E947F0A33
:1013900052FE07C088E751FC88E590E0B7010E9443
:1013A0007F0ACB1408F48BC0CA94D12C8FEFC81AD3
:1013B000D80AC80CD91CD6018E916D01B70190E0F6
:1013C0000E947F0A8C149D04B1F757CF61917191EF
:1013D000072E000C880B990B96CFD52CE894D4F8E7
:1013E0002AE0853729F1F52DF97FDF2E8037A1F02E
:1013F00058F48835A1F08F36D1F0F70186819781B6
:101400002F96E2E10C945B0B8837B9F7D4FE02C04B
:101410006894D2F820E10CC06894D4F8F7CF54FE59
:1014200003C02F2F2660D22E20E132E002C028E038
:1014300030E0F801D7FE15C0419151916191719151
:101440004C875D876E877F878F01A4016C857D85C2
:101450008E859F850E94AF0AC82EC818E894D7F8D9
:1014600068CF81919191AC0170E060E0E9CF52FCCE
:1014700002C0A3947ACFA394A39477CF852D8678C6
:1014800009F473CFF6CFB70180E290E00E947F0AA3
:10149000A394A414C0F3312C74CF342C3A18A414A0
:1014A00008F46FCFF8CF852D867809F47ACF8BE2D8
:1014B00051FE80E257FC8DE2B70190E070CFB7019A
:1014C00080E390E00E947F0ABA946BCF8FEF9FEF8A
:1014D00097CFFC010590615070400110D8F78095BE
:1014E00090958E0F9F1F0895FC01615070400190F0
:1014F0000110D8F7809590958E0F9F1F08950F9338
:101500001F93CF93DF93182F092FEB018B8181FD60
:1015100009C01FEF0FEF812F902FDF91CF911F9107
:101520000F91089582FF14C02E813F818C819D818F
:10153000281739073CF4E881F981CF010196998396
:10154000888310838E819F8101969F838E83E3CF52
:10155000E885F985812F0995892BA1F3DACFFA0166
:10156000AA27283051F1203181F1E8946F936E7FE2
:101570006E5F7F4F8F4F9F4FAF4FB1E03ED0B4E0D3
:101580003CD0670F781F891F9A1FA11D680F791F14
:101590008A1F911DA11D6A0F711D811D911DA11D25
:1015A00020D009F468943F912AE0269F1124301935
:1015B000305D3193DEF6CF010895462F4770405DD0
:1015C0004193B3E00FD0C9F7F6CF462F4F70405D7F
:1015D0004A3318F0495D31FD4052419302D0A9F7DA
:1015E000EACFB4E0A6959795879577956795BA95D4
:1015F000C9F700976105710508959B01AC010A2E9A
:1016000006945795479537952795BA95C9F7620F70
:10161000731F841F951FA01D0895052E97FB1EF4B0
:1016200000940E94240B57FD07D00E94760B07FC04
:1016300003D04EF40C94240B509540953095219591
:101640003F4F4F4F5F4F08959095809570956195EE
:101650007F4F8F4F9F4F08950E94980BA59F900D2D
:10166000B49F900DA49F800D911D11240895B7FF84
:101670000C942C0B0E942C0B821B930B08952F9221
:101680003F924F925F926F927F928F929F92AF9212
:10169000BF92CF92DF92EF92FF920F931F93CF935F
:1016A000DF93CDB7DEB7CA1BDB0B0FB6F894DEBFF6
:1016B0000FBECDBF09942A88398848885F846E841C
:1016C0007D848C849B84AA84B984C884DF80EE8066
:1016D000FD800C811B81AA81B981CE0FD11D0FB66F
:1016E000F894DEBF0FBECDBFED010895A1E21A2E22
:1016F000AA1BBB1BFD010DC0AA1FBB1FEE1FFF1FB6
:10170000A217B307E407F50720F0A21BB30BE40B05
:10171000F50B661F771F881F991F1A9469F760954C
:101720007095809590959B01AC01BD01CF01089506
:10173000A29FB001B39FC001A39F700D811D112412
:10174000911DB29F700D811D1124911D0895F89473
:02175000FFCFC9
:1017520001000100000047414D45004F564552002F
:10176200506F696E74733A2000542F5074733A208C
:101772000025642F256400576861632D412D4D6F4C
:101782006C652100285720746F207374617274296C
:02179200000055
:00000001FF
