:100000000C9424010C9441010C9441010C94410185
:100010000C9441010C9441010C9441010C94410158
:100020000C9441010C9441010C9441010C946F0219
:100030000C9441010C9441010C9441010C94410138
:100040000C9441010C9441010C9441010C94410128
:100050000C9441010C9441010C9441010C94410118
:100060000C9441010C944101000000000000005F6D
:1000700000000007000700147F147F14242A7F2A41
:10008000122313086462364955225000050300000C
:10009000001C2241000041221C0014083E081408E4
:1000A000083E0808005030000008080808080060F2
:1000B00060000020100804023E5149453E00427F86
:1000C000400042615149462141454B311814127F8D
:1000D0001027454545393C4A494930017109050316
:1000E0003649494936064949291E0036360000007E
:1000F0005636000008142241001414141414004150
:100100002214080201510906324979413E7E11113B
:10011000117E7F494949363E414141227F4141227A
:100120001C7F494949417F090909013E4149497AF2
:100130007F0808087F00417F41002040413F017F48
:10014000081422417F404040407F020C027F7F0420
:1001500008107F3E4141413E7F090909063E415159
:10016000215E7F09192946464949493101017F012C
:10017000013F4040403F1F2040201F3F4038403F4C
:100180006314081463070870080761514945430068
:100190007F41410002040810200041417F00040219
:1001A0000102044040404040000102040020545439
:1001B00054787F48444438384444442038444448C0
:1001C0007F3854545418087E0901020C5252523E92
:1001D0007F0804047800447D40002040443D007FB7
:1001E0001028440000417F40007C041804787C08FB
:1001F00004047838444444387C1414140808141453
:10020000187C7C080404084854545420043F44409B
:10021000203C4040207C1C2040201C3C4030403C86
:1002200044281028440C5050503C4464544C440022
:100230000836410000007F00000041360800100829
:10024000081008000000000011241FBECFEFD8E006
:10025000DEBFCDBF11E0A0E0B1E0E4EAF8E102C00A
:1002600005900D92A035B107D9F723E0A0E5B1E0E4
:1002700001C01D92A039B207E1F70E94B0050C94AD
:10028000500C0C9400000F931F93CF93C82F062F90
:1002900010E00E94FC08B8010E94A206C817C9F32A
:1002A0001092530110925201CF911F910F91089516
:1002B0000F931F93CF93DF93CDB7DEB72E970FB673
:1002C000F894DEBF0FBECDBF182F0E94220360E05E
:1002D0008CE30E940C0461E084E091E00E94FC0346
:1002E0001F921F9382E191E09F938F938E01055F90
:1002F0001F4F1F930F930E941C0961E0C8010E94C9
:10030000FC0369E280E00E940C0461E087E091E078
:100310000E94FC03809151018F93809150018F9333
:1003200020915401309155018DE390E0821B930B95
:100330009F938F938FE091E09F938F930A501109C1
:100340001F930F930E941C0969E287E20E940C042C
:1003500061E0C8010E94FC030FB6F894DEBF0FBE37
:10036000CDBF2E960FB6F894DEBF0FBECDBFDF9186
:10037000CF911F910F910895FF920F931F93CF93E9
:10038000DF9300D0CDB7DEB7F82E8DB79EB79A8336
:100390008983462F50E0EDB7FEB7E41BF50B0FB68F
:1003A000F894FEBF0FBEEDBF0DB71EB70F5F1F4F16
:1003B0006FE470E0C8010E941509F801EF0DF11D0E
:1003C00086E2808360E085E20E940C0461E0F8012F
:1003D00080810E945B036DE080E00E940C0461E07C
:1003E000F80181810E945B036DE085E20E940C04AC
:1003F00061E0F80182810E945B036DE088E40E9465
:100400000C0461E0F80183810E945B036CE185E2EA
:100410000E940C0461E0F80184810E945B0326E2E3
:1004200044E566E280E00E9426040E94110489816E
:100430009A810FB6F8949EBF0FBE8DBF0F900F909C
:10044000DF91CF911F910F91FF900895CF93DF938C
:10045000CDB7DEB761970FB6F894DEBF0FBECDBF44
:100460000E94220360E084E10E940C0462E085E1C6
:1004700091E00E94FC0364E184E10E940C0462E0CC
:100480008AE191E00E94FC0368E280E00E940C0493
:1004900061E08FE191E00E94FC03809151018F9314
:1004A000809150018F9382E191E09F938F938E0111
:1004B0000F5F1F4F1F930F930E941C0968E28DE28C
:1004C0000E940C0461E0C8010E94FC030E94110418
:1004D0000F900F900F900F900F900F90FFCF1F92E3
:1004E0000F920FB60F9211242F933F934F935F9368
:1004F0006F937F938F939F93AF93BF93EF93FF93EC
:1005000080915401909155010196909355018093EB
:10051000540120915201309153012F5F3F4F30938E
:10052000530120935201CD9710F00E942602FF91B3
:10053000EF91BF91AF919F918F917F916F915F915B
:100540004F913F912F910F900FBE0F901F901895D4
:100550001092850010928400E1E8F0E080818860CC
:10056000808380818560808389E09DE3909389000A
:1005700080938800EFE6F0E08081826080830895B8
:1005800029986623A9F02B9A27E030E090E0AC018F
:10059000022E02C0559547950A94E2F740FF0AC023
:1005A0002C9A2D9A2D982150310988F7299A08956F
:1005B0002B98EACF2C98F5CF60E00C94C002CF9333
:1005C000DF93219A229A239A249A259A2A9A299A81
:1005D0008FE39CE90197F1F700C000002A989FEF94
:1005E0002AE683E0915020408040E1F700C00000FF
:1005F0002A9A299881E20E94DC0283E10E94DC02AF
:1006000086E00E94DC0282EC0E94DC0280E20E9412
:10061000DC0289E00E94DC0280E80E94DC0280E4C7
:100620000E94DC02C8EFD1E061E080E00E94C002DD
:100630002197D1F788E00E94DC028CE0DF91CF9116
:100640000C94DC0280E80E94DC0280E40E94DC0260
:1006500010928E0310928F03E6E9F1E088EF91E0AB
:10066000DF019C011D9221503040E1F70895811176
:1006700003C084E20C94DC0280E2FCCF962F9695B6
:1006800096959695E82FF0E084E5989FE00DF11D92
:100690001124EA56FE4F2081677081E090E001C08E
:1006A000880F6A95EAF7442319F0282B20830895D0
:1006B00080952823FBCF8F929F92AF92BF92DF92BB
:1006C000EF92FF920F931F93CF93DF9300D000D050
:1006D0000F92CDB7DEB7E82FF62E80320CF44DC066
:1006E000E05285E0E802B001112468597F4F45E0EF
:1006F00050E0CE0101960E940C098E010F5F1F4F42
:1007000095E0F99E5001112487E0F89E40011124E4
:10071000E12CEA141B040CF463C080918E038F5FFC
:100720009F2D990F990F9F0D890F80938E0384350C
:1007300058F080918F0310928E038F5F97E0F99E9F
:10074000800D112480938F0380918F03803320F0DC
:1007500010928E0310928F030F900F900F900F90B6
:100760000F90DF91CF911F910F91FF90EF90DF904D
:10077000BF90AF909F908F900895EE0FFF0BEA5AB5
:10078000FE4F008111810115110509F0B9CF45E037
:1007900050E068E670E0ADCFED0D5E0D8E2D6F2D53
:1007A0000E949606D801A80FB11D2C9130E08D2D26
:1007B0000E94960602C0359527958A95E2F741E09A
:1007C00020FF40E06E2F852F0E943E03D394E091DE
:1007D0008F0350918E03D8141904F4F2E39499CF47
:1007E000D12CF5CFE82F803234F4EE0FFF0BEA5A0C
:1007F000FE4F7183608308951F93CF93DF93162F6D
:10080000EC018991811104C0DF91CF911F9108956E
:10081000612F0E945B03F5CF80938E0360938F035B
:100820000895CF93DF9380E80E94DC0280E40E9469
:10083000DC02C6E9D1E061E089910E94C00283E058
:10084000CE38D807C1F7DF91CF9108954F925F92CC
:100850006F927F928F929F92AF92BF92CF92DF92D0
:10086000EF92FF92CF93DF93CDB7DEB762970FB6CB
:10087000F894DEBF0FBECDBF8D876987F22E481B6F
:10088000550BCA01550FAA0BBB0B89839A83AB8307
:10089000BC83BC01CD010E94DF0769837A838B830F
:1008A0009C83AF2D4985A41BBB0BCD01BB0FAA0BAD
:1008B000BB0B8D839E83AF83B887BC01CD010E94A3
:1008C000DF076D837E838F839887C980DA80EB8012
:1008D000FC80E894F7F84B015C01E894B7F8A501B7
:1008E0009401C701B6010E948F0887FF02C07501FD
:1008F0006401A701960169817A818B819C810E94A4
:100900003C0769837A838B839C834B015C01A7013D
:1009100096016D817E818F8198850E943C072B0115
:100920003C019D85892F90E0B0E0A0E089839A8307
:10093000AB83BC83BC01CD010E94DD0769837A8350
:100940008B839C839985892F90E0B0E0A0E08D8314
:100950009E83AF83B887BC01CD010E94DD076D8304
:100960007E838F839887A1E0B0E0BA8BA98B8989B9
:100970009A89092E000CAA0BBB0B89879A87AB8733
:10098000BC87BC01CD010E94DF0769877A878B870E
:100990009C87A70196010E9437071816ACF462964F
:1009A0000FB6F894DEBF0FBECDBFDF91CF91FF90A1
:1009B000EF90DF90CF90BF90AF909F908F907F90FF
:1009C0006F905F904F9008956D817E818F819885A3
:1009D0000E94AE0769877A878B879C8769817A81B5
:1009E0008B819C810E94AE076D877E878F87988B55
:1009F00041E069858D850E943E03A50194016981CE
:100A00007A818B819C810E94CB0669837A838B8358
:100A10009C83A30192016D817E818F8198850E94C4
:100A2000CB066D837E838F83988789899A89019607
:100A30009A8B898B9CCF0F931F93CF93DF93C82FF3
:100A4000162F042FD22F262F0E9426042D2F402F41
:100A5000612F802F0E9426042D2F4C2F6D2F802F69
:100A60000E942604212F4C2F6D2F8C2FDF91CF91C8
:100A70001F910F910C9426047F928F929F92AF92B8
:100A8000BF92CF92DF92EF92FF920F931F93CF937B
:100A9000DF93D82EC62EC42FD0E0F12CE12C10E02D
:100AA00000E041E0AC2CA00E6A2DBC2EBD0C8B2DBD
:100AB0000E943E0341E08C2E8C0C682D9D2C900EE4
:100AC000892D0E943E0341E0682D7D2C701A872DF0
:100AD0000E943E0341E06A2D8D2C8C1A882D0E94C5
:100AE0003E0341E0AC2CA01A6A2D882D0E943E03E3
:100AF00041E08C2C8C1A682D872D0E943E0341E02A
:100B0000682D892D0E943E0341E06A2D8B2D0E94A5
:100B10003E031E141F045CF00F5F1F4FC801880FB7
:100B2000991F0196E80EF91E1E141F043CF421972C
:100B3000CE01880F991F0196E81AF90AC017D1074C
:100B40000CF0AFCFDF91CF911F910F91FF90EF90FD
:100B5000DF90CF90BF90AF909F908F907F9008953F
:100B6000CDB7DEB765970FB6F894DEBF0FBECDBF29
:100B7000F89487B1886387B98AB1807E8AB98BB1CE
:100B80008F618BB90E94DF020E9422030E94A8029B
:100B90002FE243E560E080E00E941B056AE087E009
:100BA0000E940C0461E088E291E00E94FC0364E191
:100BB00086E00E940C0461E085E391E00E94FC0362
:100BC00063E285E00E940C041F928CE38F9382E421
:100BD00091E09F938F938E010F5F1F4F1F930F9391
:100BE0000E941C0961E0C8010E94FC030E941104DC
:100BF0000F900F900F900F900F900F9090E080E06B
:100C0000489971C0489BFECF0E94010978940E94C8
:100C1000FC0865E070E00E94A206182F00E0CC24DA
:100C2000C394D12C772473945E0184E1A80EB11C87
:100C30008DB79EB79D8B8C8B802F0E945801809121
:100C4000520190915301892B29F065E0812F0E9478
:100C50004301182F65E0812F0E94BC011F86188A6E
:100C6000198A1A8A1B8AF12CE12C89B190E00E2C8A
:100C700002C0959587950A94E2F780FD3EC0460133
:100C80000E2C02C0880C991C0A94E2F789B190E0FE
:100C900088219921892B49F1EFE0F0E0EC0FFD1F4D
:100CA000EE0DFF1D7082EFE0F0E0EC0FFD1FE10F95
:100CB000F11D8081FE013F96882359F180915001FA
:100CC000909151010196909351018093500165E0FC
:100CD000812F0E944301182F00E00FB6F894DEBF69
:100CE0000FBECDBFA5CF01968BCF802F0E9458019C
:100CF00065E0812F0E94BC01C9CF9FEFE91AF90A74
:100D000085E0E816F10409F0B0CFCDCFAE16BF06EE
:100D100021F381918823D1F30F5F65E0812F0E9439
:100D20004301182F0A30C9F60E942602991B79E068
:100D300004C0991F961708F0961B881F7A95C9F76B
:100D40008095089597FB072E16F4009407D077FD41
:100D500009D00E94B60607FC05D03EF49095819517
:100D60009F4F0895709561957F4F0895AA1BBB1BF7
:100D700051E107C0AA1FBB1FA617B70710F0A61B9B
:100D8000B70B881F991F5A95A9F780959095BC01BC
:100D9000CD0108955058BB27AA270E94E2060C9463
:100DA00055080E94470838F00E944E0820F039F498
:100DB0009F3F19F426F40C9444080EF4E095E7FBE9
:100DC0000C943E08E92F0E94660858F3BA17620790
:100DD00073078407950720F079F4A6F50C9488082A
:100DE0000EF4E0950B2EBA2FA02D0B01B901900146
:100DF0000C01CA01A0011124FF27591B99F0593F8A
:100E000050F4503E68F11A16F040A22F232F342FD1
:100E10004427585FF3CF469537952795A795F0401F
:100E20005395C9F77EF41F16BA0B620B730B840B34
:100E3000BAF09150A1F0FF0FBB1F661F771F881FEC
:100E4000C2F70EC0BA0F621F731F841F48F4879544
:100E500077956795B795F7959E3F08F0B0CF939536
:100E6000880F08F09927EE0F9795879508950E94AF
:100E70001A0808F481E008950E9450070C94550860
:100E80000E944E0858F00E94470840F029F45F3F46
:100E900029F00C943E0851110C9489080C944408D4
:100EA0000E94660868F39923B1F3552391F3951BCB
:100EB000550BBB27AA2762177307840738F09F5F7B
:100EC0005F4F220F331F441FAA1FA9F335D00E2EE8
:100ED0003AF0E0E832D091505040E695001CCAF755
:100EE0002BD0FE2F29D0660F771F881FBB1F261718
:100EF00037074807AB07B0E809F0BB0B802DBF01EF
:100F0000FF2793585F4F3AF09E3F510578F00C94BD
:100F10003E080C9489085F3FE4F3983ED4F386952D
:100F200077956795B795F7959F5FC9F7880F911DDE
:100F30009695879597F90895E1E0660F771F881FCA
:100F4000BB1F621773078407BA0720F0621B730B7D
:100F5000840BBA0BEE1F88F7E09508950E946E0887
:100F600088F09F5798F0B92F9927B751B0F0E1F06A
:100F7000660F771F881F991F1AF0BA95C9F714C01A
:100F8000B13091F00E948808B1E008950C9488086F
:100F9000672F782F8827B85F39F0B93FCCF3869553
:100FA00077956795B395D9F73EF4909580957095B0
:100FB00061957F4F8F4F9F4F0895E89409C097FB2D
:100FC0003EF490958095709561957F4F8F4F9F4F20
:100FD0009923A9F0F92F96E9BB279395F695879564
:100FE00077956795B795F111F8CFFAF4BB0F11F427
:100FF00060FF1BC06F5F7F4F8F4F9F4F16C08823CE
:1010000011F096E911C0772321F09EE8872F762F03
:1010100005C0662371F096E8862F70E060E02AF044
:101020009A95660F771F881FDAF7880F9695879530
:1010300097F90895990F0008550FAA0BE0E8FEEF05
:1010400016161706E807F907C0F012161306E4078C
:10105000F50798F0621B730B840B950B39F40A2685
:1010600061F0232B242B252B21F408950A2609F463
:10107000A140A6958FEF811D811D089597F99F6767
:1010800080E870E060E008959FEF80EC0895002410
:101090000A941616170618060906089500240A94DD
:1010A00012161306140605060895092E0394000C63
:1010B00011F4882352F0BB0F40F4BF2B11F460FFF2
:1010C00004C06F5F7F4F8F4F9F4F089557FD90581B
:1010D000440F551F59F05F3F71F04795880F97FBFC
:1010E000991F61F09F3F79F08795089512161306B6
:1010F0001406551FF2CF4695F1DF08C016161706E5
:101100001806991FF1CF8695710561050894089519
:10111000E894BB2766277727CB0197F908950E94AB
:101120001A0808F48FEF0895CF92DF92EF92FF92A2
:10113000CF93DF93CDB7DEB72A970FB6F894DEBF13
:101140000FBECDBF89879A87A985BA852D913D911C
:101150004D915C9129833A834B835C83232B242B11
:10116000252B41F424E239ED4BE557E029833A83FE
:101170004B835C8369817A818B819C812DE133EF84
:1011800041E050E00E94B60B69017A01A7EAB1E4A0
:101190009B01AC010E94D50B69837A838B839C836E
:1011A000ACEEB4EFA70196010E94E30B9B01AC01EA
:1011B00089819A81AB81BC81820F931FA41FB51FC7
:1011C000B7FF03C00197A109B048E985FA8580837C
:1011D0009183A283B3839F772A960FB6F894DEBFDC
:1011E0000FBECDBFDF91CF91FF90EF90DF90CF90FA
:1011F00008950E949408089580E091E00E94940868
:101200000895B0E0A0E08093000190930101A093C5
:101210000201B09303010895FB01DC0102C00590B7
:101220000D9241505040D8F70895DC0101C06D93F4
:1012300041505040E0F70895AEE0B0E0E2E2F9E05E
:101240000C94F60B0D891E8986E08C831A83098322
:101250008FEF9FE79E838D83AE01475E5F4F6F895F
:10126000788DCE0101960E943F092F813885020FAB
:10127000131FF80110822E96E4E00C94120CAFE0DC
:10128000B0E0E5E4F9E00C94E80B7C013B018A0155
:10129000DC0117961C921E92169713968C9181FF73
:1012A000BEC19AE0292EFE0131964F01D701139657
:1012B0009C91F30193FD859193FF81913F018823D8
:1012C00009F444C1853239F493FD859193FF8191EE
:1012D0003F01853229F4B70190E00E94280BE6CF48
:1012E000B12C412C512CBFE1B51538F08B3209F1EE
:1012F00088F4803201F1833221F157FC3AC020EDAD
:10130000280F2A3040F556FE1FC0B29C200D112434
:10131000B22E06C08D3291F0803379F7689450F880
:10132000F30193FD859193FF81913F018111DBCF03
:1013300020C0689451F8689452F8F2CF689453F83A
:10134000EFCF689454F8ECCF429C200D1124422E2C
:10135000689455F8E5CF8E3229F456FCF7C06894AE
:1013600056F8DECF8C3619F4689457F8D9CF883602
:10137000B9F2982F9F7D95549330C0F0833681F158
:101380008337A1F1833509F05BC0D801CD90DD90A2
:101390008D016B2D70E056FC02C06FEF7FEFC60130
:1013A0000E94120B5C01689457F80AC00C5F1F4F33
:1013B000EFE3E983AA24A394B12C6401E89457F8DD
:1013C00053FE29C0342CA114B10451F5332009F483
:1013D0006DCFB70180E290E00E94280B3A94F6CFDF
:1013E000D8018C9189830E5F1F4FE4CFF801C19023
:1013F000D1908F016B2D70E056FC02C06FEF7FEF34
:10140000C6010E941D0B5C01D9CFB70180E290E0BC
:101410000E94280B4A944A141B0409F0B0F7D2CF5B
:10142000F60157FC859157FE81916F01B70190E05D
:101430000E94280B31103A94B1E0AB1AB108C3CF27
:10144000843619F0893609F071C0F80157FE67C07B
:1014500061917191819191918F01E52DEF76DE2E51
:1014600097FF09C090958095709561957F4F8F4F3C
:101470009F4F6894D7F82AE030E0A4010E94580BEF
:10148000C82EC818AC2C5D2CD6FE0CC0E89450F8C1
:10149000CB1440F4D4FE05C0D2FC03C05D2D5E7EAB
:1014A000552EAB2C54FE93C0FE01EC0DF11D808136
:1014B000803309F085C0652D697E562E752D7870B4
:1014C000372E53FC93C050FE8DC0BC2CA41410F4D6
:1014D000B40CBA1854FE90C0B70180E390E00E94AB
:1014E000280B52FE07C088E751FC88E590E0B70161
:1014F0000E94280BCB1408F48BC0CA94D12C8FEF18
:10150000C81AD80AC80CD91CD6018E916D01B70132
:1015100090E00E94280B8C149D04B1F757CF619185
:101520007191072E000C880B990B96CFD52CE8945F
:10153000D4F82AE0853729F1F52DF97FDF2E8037A1
:10154000A1F058F48835A1F08F36D1F0F7018681EB
:1015500097812F96E2E10C94040C8837B9F7D4FEFA
:1015600002C06894D2F820E10CC06894D4F8F7CF98
:1015700054FE03C02F2F2660D22E20E132E002C09D
:1015800028E030E0F801D7FE15C0419151916191FA
:1015900071914C875D876E877F878F01A4016C8571
:1015A0007D858E859F850E94580BC82EC818E894AB
:1015B000D7F868CF81919191AC0170E060E0E9CFFC
:1015C00052FC02C0A3947ACFA394A39477CF852D25
:1015D000867809F473CFF6CFB70180E290E00E94DD
:1015E000280BA394A414C0F3312C74CF342C3A18D4
:1015F000A41408F46FCFF8CF852D867809F47ACF3C
:101600008BE251FE80E257FC8DE2B70190E070CF93
:10161000B70180E390E00E94280BBA946BCF8FEF64
:101620009FEF97CFFC010590615070400110D8F7F3
:10163000809590958E0F9F1F0895FC01615070401A
:1016400001900110D8F7809590958E0F9F1F0895F7
:101650000F931F93CF93DF93182F092FEB018B81EB
:1016600081FD09C01FEF0FEF812F902FDF91CF91E8
:101670001F910F91089582FF14C02E813F818C81AC
:101680009D81281739073CF4E881F981CF01019643
:101690009983888310838E819F8101969F838E8397
:1016A000E3CFE885F985812F0995892BA1F3DACF5E
:1016B000FA01AA27283051F1203181F1E8946F9383
:1016C0006E7F6E5F7F4F8F4F9F4FAF4FB1E03ED029
:1016D000B4E03CD0670F781F891F9A1FA11D680FC7
:1016E000791F8A1F911DA11D6A0F711D811D911DFA
:1016F000A11D20D009F468943F912AE0269F11246F
:101700003019305D3193DEF6CF010895462F4770D2
:10171000405D4193B3E00FD0C9F7F6CF462F4F702D
:10172000405D4A3318F0495D31FD4052419302D08B
:10173000A9F7EACFB4E0A695979587957795679531
:10174000BA95C9F700976105710508959B01AC0131
:101750000A2E06945795479537952795BA95C9F758
:10176000620F731F841F951FA01D0895052E97FB00
:101770001EF400940E94CD0B57FD07D00E941F0C51
:1017800007FC03D04EF40C94CD0B5095409530954A
:1017900021953F4F4F4F5F4F0895909580957095DD
:1017A00061957F4F8F4F9F4F08950E94410CA59FD9
:1017B000900DB49F900DA49F800D911D112408954C
:1017C000B7FF0C94D50B0E94D50B821B930B089589
:1017D0002F923F924F925F926F927F928F929F9241
:1017E000AF92BF92CF92DF92EF92FF920F931F932F
:1017F000CF93DF93CDB7DEB7CA1BDB0B0FB6F894E0
:10180000DEBF0FBECDBF09942A88398848885F841F
:101810006E847D848C849B84AA84B984C884DF8090
:10182000EE80FD800C811B81AA81B981CE0FD11D74
:101830000FB6F894DEBF0FBECDBFED010895A1E253
:101840001A2EAA1BBB1BFD010DC0AA1FBB1FEE1F3A
:10185000FF1FA217B307E407F50720F0A21BB30B85
:10186000E40BF50B661F771F881F991F1A9469F701
:1018700060957095809590959B01AC01BD01CF015D
:101880000895A29FB001B39FC001A39F700D811D59
:101890001124911DB29F700D811D1124911D089579
:0418A000F894FFCFEA
:1018A400010000004D3A00542F5074733A20002573
:1018B400642F25640047414D45004F564552005062
:1018C4006F696E74733A2000574841432D412D4D82
:1018D4004F4C452100285720746F20737461727433
:1018E4002900596F752068617665202564730000AE
:00000001FF
